{
  "abi": [
    {
      "inputs": [
        {
          "internalType": "uint256",
          "name": "minimum",
          "type": "uint256"
        },
        {
          "internalType": "address",
          "name": "creator",
          "type": "address"
        }
      ],
      "stateMutability": "nonpayable",
      "type": "constructor"
    },
    {
      "inputs": [
        {
          "internalType": "uint256",
          "name": "index",
          "type": "uint256"
        }
      ],
      "name": "approveRequest",
      "outputs": [],
      "stateMutability": "nonpayable",
      "type": "function"
    },
    {
      "inputs": [
        {
          "internalType": "address",
          "name": "",
          "type": "address"
        }
      ],
      "name": "approvers",
      "outputs": [
        {
          "internalType": "bool",
          "name": "",
          "type": "bool"
        }
      ],
      "stateMutability": "view",
      "type": "function"
    },
    {
      "inputs": [],
      "name": "approversCount",
      "outputs": [
        {
          "internalType": "uint256",
          "name": "",
          "type": "uint256"
        }
      ],
      "stateMutability": "view",
      "type": "function"
    },
    {
      "inputs": [],
      "name": "contribute",
      "outputs": [],
      "stateMutability": "payable",
      "type": "function"
    },
    {
      "inputs": [
        {
          "internalType": "string",
          "name": "description",
          "type": "string"
        },
        {
          "internalType": "uint256",
          "name": "value",
          "type": "uint256"
        },
        {
          "internalType": "address payable",
          "name": "recipient",
          "type": "address"
        }
      ],
      "name": "createRequest",
      "outputs": [],
      "stateMutability": "nonpayable",
      "type": "function"
    },
    {
      "inputs": [
        {
          "internalType": "uint256",
          "name": "index",
          "type": "uint256"
        }
      ],
      "name": "finalizeRequest",
      "outputs": [],
      "stateMutability": "nonpayable",
      "type": "function"
    },
    {
      "inputs": [
        {
          "internalType": "uint256",
          "name": "requestIndex",
          "type": "uint256"
        }
      ],
      "name": "getRequest",
      "outputs": [
        {
          "internalType": "string[5]",
          "name": "",
          "type": "string[5]"
        }
      ],
      "stateMutability": "view",
      "type": "function"
    },
    {
      "inputs": [],
      "name": "getRequestsCount",
      "outputs": [
        {
          "internalType": "uint256",
          "name": "",
          "type": "uint256"
        }
      ],
      "stateMutability": "view",
      "type": "function"
    },
    {
      "inputs": [],
      "name": "getSummary",
      "outputs": [
        {
          "internalType": "uint256",
          "name": "",
          "type": "uint256"
        },
        {
          "internalType": "uint256",
          "name": "",
          "type": "uint256"
        },
        {
          "internalType": "uint256",
          "name": "",
          "type": "uint256"
        },
        {
          "internalType": "uint256",
          "name": "",
          "type": "uint256"
        },
        {
          "internalType": "address",
          "name": "",
          "type": "address"
        }
      ],
      "stateMutability": "view",
      "type": "function"
    },
    {
      "inputs": [],
      "name": "manager",
      "outputs": [
        {
          "internalType": "address",
          "name": "",
          "type": "address"
        }
      ],
      "stateMutability": "view",
      "type": "function"
    },
    {
      "inputs": [],
      "name": "minimumContribution",
      "outputs": [
        {
          "internalType": "uint256",
          "name": "",
          "type": "uint256"
        }
      ],
      "stateMutability": "view",
      "type": "function"
    }
  ],
  "evm": {
    "bytecode": {
      "linkReferences": {},
      "object": "60806040523480156200001157600080fd5b5060405162001ad438038062001ad483398181016040528101906200003791906200012b565b806000806101000a81548173ffffffffffffffffffffffffffffffffffffffff021916908373ffffffffffffffffffffffffffffffffffffffff16021790555081600181905550505062000172565b600080fd5b6000819050919050565b620000a0816200008b565b8114620000ac57600080fd5b50565b600081519050620000c08162000095565b92915050565b600073ffffffffffffffffffffffffffffffffffffffff82169050919050565b6000620000f382620000c6565b9050919050565b6200010581620000e6565b81146200011157600080fd5b50565b6000815190506200012581620000fa565b92915050565b6000806040838503121562000145576200014462000086565b5b60006200015585828601620000af565b9250506020620001688582860162000114565b9150509250929050565b61195280620001826000396000f3fe60806040526004361061009c5760003560e01c806382fde0931161006457806382fde0931461018c5780638a9cfd55146101b7578063937e09b1146101e0578063c58343ef1461020b578063d7bb99ba14610248578063d7d1bbdb146102525761009c565b806303441006146100a15780630a144391146100ca5780633410452a146101075780634051ddac14610132578063481c6a7514610161575b600080fd5b3480156100ad57600080fd5b506100c860048036038101906100c39190610eae565b61027b565b005b3480156100d657600080fd5b506100f160048036038101906100ec9190610f39565b6103b4565b6040516100fe9190610f81565b60405180910390f35b34801561011357600080fd5b5061011c6103d4565b6040516101299190610fab565b60405180910390f35b34801561013e57600080fd5b506101476103de565b604051610158959493929190610fd5565b60405180910390f35b34801561016d57600080fd5b50610176610422565b6040516101839190611028565b60405180910390f35b34801561019857600080fd5b506101a1610446565b6040516101ae9190610fab565b60405180910390f35b3480156101c357600080fd5b506101de60048036038101906101d991906111c7565b61044c565b005b3480156101ec57600080fd5b506101f561054a565b6040516102029190610fab565b60405180910390f35b34801561021757600080fd5b50610232600480360381019061022d9190610eae565b610550565b60405161023f9190611374565b60405180910390f35b61025061086c565b005b34801561025e57600080fd5b5061027960048036038101906102749190610eae565b6108ec565b005b60008054906101000a900473ffffffffffffffffffffffffffffffffffffffff1673ffffffffffffffffffffffffffffffffffffffff163373ffffffffffffffffffffffffffffffffffffffff16146102d357600080fd5b600060056000838152602001908152602001600020905060026003546102f991906113f4565b81600301541161030857600080fd5b8060020160149054906101000a900460ff161561032457600080fd5b8060020160009054906101000a900473ffffffffffffffffffffffffffffffffffffffff1673ffffffffffffffffffffffffffffffffffffffff166108fc82600101549081150290604051600060405180830381858888f19350505050158015610392573d6000803e3d6000fd5b5060018160020160146101000a81548160ff0219169083151502179055505050565b60026020528060005260406000206000915054906101000a900460ff1681565b6000600454905090565b60008060008060006001544760045460035460008054906101000a900473ffffffffffffffffffffffffffffffffffffffff16945094509450945094509091929394565b60008054906101000a900473ffffffffffffffffffffffffffffffffffffffff1681565b60035481565b60008054906101000a900473ffffffffffffffffffffffffffffffffffffffff1673ffffffffffffffffffffffffffffffffffffffff163373ffffffffffffffffffffffffffffffffffffffff16146104a457600080fd5b60006005600060045481526020019081526020016000209050600460008154809291906104d090611425565b9190505550838160000190805190602001906104ed929190610d9a565b50828160010181905550818160020160006101000a81548173ffffffffffffffffffffffffffffffffffffffff021916908373ffffffffffffffffffffffffffffffffffffffff1602179055506000816003018190555050505050565b60015481565b610558610e20565b610560610e20565b600060056000858152602001908152602001600020905060008160000180546105889061149d565b80601f01602080910402602001604051908101604052809291908181526020018280546105b49061149d565b80156106015780601f106105d657610100808354040283529160200191610601565b820191906000526020600020905b8154815290600101906020018083116105e457829003601f168201915b505050505090506000815111801561061d575060008260010154115b61065c576040517f08c379a00000000000000000000000000000000000000000000000000000000081526004016106539061152c565b60405180910390fd5b81600001805461066b9061149d565b80601f01602080910402602001604051908101604052809291908181526020018280546106979061149d565b80156106e45780601f106106b9576101008083540402835291602001916106e4565b820191906000526020600020905b8154815290600101906020018083116106c757829003601f168201915b5050505050836000600581106106fd576106fc61154c565b5b60200201819052506107128260010154610a2a565b836001600581106107265761072561154c565b5b602002018190525061075b8260020160009054906101000a900473ffffffffffffffffffffffffffffffffffffffff16610b91565b8360026005811061076f5761076e61154c565b5b60200201819052506107848260030154610a2a565b836003600581106107985761079761154c565b5b60200201819052508160020160149054906101000a900460ff161561080e576040518060400160405280600881526020017f636f6d706c657465000000000000000000000000000000000000000000000000815250836004600581106108015761080061154c565b5b6020020181905250610861565b6040518060400160405280600a81526020017f756e636f6d706c65746500000000000000000000000000000000000000000000815250836004600581106108585761085761154c565b5b60200201819052505b829350505050919050565b600154341161087a57600080fd5b6001600260003373ffffffffffffffffffffffffffffffffffffffff1673ffffffffffffffffffffffffffffffffffffffff16815260200190815260200160002060006101000a81548160ff021916908315150217905550600360008154809291906108e590611425565b9190505550565b6000600560008381526020019081526020016000209050600260003373ffffffffffffffffffffffffffffffffffffffff1673ffffffffffffffffffffffffffffffffffffffff16815260200190815260200160002060009054906101000a900460ff1661095957600080fd5b8060040160003373ffffffffffffffffffffffffffffffffffffffff1673ffffffffffffffffffffffffffffffffffffffff16815260200190815260200160002060009054906101000a900460ff16156109b257600080fd5b60018160040160003373ffffffffffffffffffffffffffffffffffffffff1673ffffffffffffffffffffffffffffffffffffffff16815260200190815260200160002060006101000a81548160ff021916908315150217905550806003016000815480929190610a2190611425565b91905055505050565b60606000821415610a72576040518060400160405280600181526020017f30000000000000000000000000000000000000000000000000000000000000008152509050610b8c565b600082905060005b60008214610aa4578080610a8d90611425565b915050600a82610a9d91906113f4565b9150610a7a565b60008167ffffffffffffffff811115610ac057610abf61105e565b5b6040519080825280601f01601f191660200182016040528015610af25781602001600182028036833780820191505090505b50905060008290508593505b60008414610b8457600a84610b13919061157b565b6030610b1f91906115ac565b60f81b8282610b2d90611602565b92508281518110610b4157610b4061154c565b5b60200101907effffffffffffffffffffffffffffffffffffffffffffffffffffffffffffff1916908160001a905350600a84610b7d91906113f4565b9350610afe565b819450505050505b919050565b60606000602867ffffffffffffffff811115610bb057610baf61105e565b5b6040519080825280601f01601f191660200182016040528015610be25781602001600182028036833780820191505090505b50905060005b6014811015610d4a576000816013610c00919061162c565b6008610c0c9190611660565b6002610c1891906117ed565b8573ffffffffffffffffffffffffffffffffffffffff16610c3991906113f4565b60f81b9050600060108260f81c610c509190611845565b60f81b905060008160f81c6010610c679190611876565b8360f81c610c7591906118b1565b60f81b9050610c8382610d54565b85856002610c919190611660565b81518110610ca257610ca161154c565b5b60200101907effffffffffffffffffffffffffffffffffffffffffffffffffffffffffffff1916908160001a905350610cda81610d54565b856001866002610cea9190611660565b610cf491906115ac565b81518110610d0557610d0461154c565b5b60200101907effffffffffffffffffffffffffffffffffffffffffffffffffffffffffffff1916908160001a9053505050508080610d4290611425565b915050610be8565b5080915050919050565b6000600a8260f81c60ff161015610d7f5760308260f81c610d7591906118e5565b60f81b9050610d95565b60578260f81c610d8f91906118e5565b60f81b90505b919050565b828054610da69061149d565b90600052602060002090601f016020900481019282610dc85760008555610e0f565b82601f10610de157805160ff1916838001178555610e0f565b82800160010185558215610e0f579182015b82811115610e0e578251825591602001919060010190610df3565b5b509050610e1c9190610e47565b5090565b6040518060a001604052806005905b6060815260200190600190039081610e2f5790505090565b5b80821115610e60576000816000905550600101610e48565b5090565b6000604051905090565b600080fd5b600080fd5b6000819050919050565b610e8b81610e78565b8114610e9657600080fd5b50565b600081359050610ea881610e82565b92915050565b600060208284031215610ec457610ec3610e6e565b5b6000610ed284828501610e99565b91505092915050565b600073ffffffffffffffffffffffffffffffffffffffff82169050919050565b6000610f0682610edb565b9050919050565b610f1681610efb565b8114610f2157600080fd5b50565b600081359050610f3381610f0d565b92915050565b600060208284031215610f4f57610f4e610e6e565b5b6000610f5d84828501610f24565b91505092915050565b60008115159050919050565b610f7b81610f66565b82525050565b6000602082019050610f966000830184610f72565b92915050565b610fa581610e78565b82525050565b6000602082019050610fc06000830184610f9c565b92915050565b610fcf81610efb565b82525050565b600060a082019050610fea6000830188610f9c565b610ff76020830187610f9c565b6110046040830186610f9c565b6110116060830185610f9c565b61101e6080830184610fc6565b9695505050505050565b600060208201905061103d6000830184610fc6565b92915050565b600080fd5b600080fd5b6000601f19601f8301169050919050565b7f4e487b7100000000000000000000000000000000000000000000000000000000600052604160045260246000fd5b6110968261104d565b810181811067ffffffffffffffff821117156110b5576110b461105e565b5b80604052505050565b60006110c8610e64565b90506110d4828261108d565b919050565b600067ffffffffffffffff8211156110f4576110f361105e565b5b6110fd8261104d565b9050602081019050919050565b82818337600083830152505050565b600061112c611127846110d9565b6110be565b90508281526020810184848401111561114857611147611048565b5b61115384828561110a565b509392505050565b600082601f8301126111705761116f611043565b5b8135611180848260208601611119565b91505092915050565b600061119482610edb565b9050919050565b6111a481611189565b81146111af57600080fd5b50565b6000813590506111c18161119b565b92915050565b6000806000606084860312156111e0576111df610e6e565b5b600084013567ffffffffffffffff8111156111fe576111fd610e73565b5b61120a8682870161115b565b935050602061121b86828701610e99565b925050604061122c868287016111b2565b9150509250925092565b600060059050919050565b600081905092915050565b6000819050919050565b600081519050919050565b600082825260208201905092915050565b60005b83811015611290578082015181840152602081019050611275565b8381111561129f576000848401525b50505050565b60006112b082611256565b6112ba8185611261565b93506112ca818560208601611272565b6112d38161104d565b840191505092915050565b60006112ea83836112a5565b905092915050565b6000602082019050919050565b600061130a82611236565b6113148185611241565b9350836020820285016113268561124c565b8060005b85811015611362578484038952815161134385826112de565b945061134e836112f2565b925060208a0199505060018101905061132a565b50829750879550505050505092915050565b6000602082019050818103600083015261138e81846112ff565b905092915050565b7f4e487b7100000000000000000000000000000000000000000000000000000000600052601260045260246000fd5b7f4e487b7100000000000000000000000000000000000000000000000000000000600052601160045260246000fd5b60006113ff82610e78565b915061140a83610e78565b92508261141a57611419611396565b5b828204905092915050565b600061143082610e78565b91507fffffffffffffffffffffffffffffffffffffffffffffffffffffffffffffffff821415611463576114626113c5565b5b600182019050919050565b7f4e487b7100000000000000000000000000000000000000000000000000000000600052602260045260246000fd5b600060028204905060018216806114b557607f821691505b602082108114156114c9576114c861146e565b5b50919050565b600082825260208201905092915050565b7f5265717565737420646f6573206e6f7420657869737421000000000000000000600082015250565b60006115166017836114cf565b9150611521826114e0565b602082019050919050565b6000602082019050818103600083015261154581611509565b9050919050565b7f4e487b7100000000000000000000000000000000000000000000000000000000600052603260045260246000fd5b600061158682610e78565b915061159183610e78565b9250826115a1576115a0611396565b5b828206905092915050565b60006115b782610e78565b91506115c283610e78565b9250827fffffffffffffffffffffffffffffffffffffffffffffffffffffffffffffffff038211156115f7576115f66113c5565b5b828201905092915050565b600061160d82610e78565b91506000821415611621576116206113c5565b5b600182039050919050565b600061163782610e78565b915061164283610e78565b925082821015611655576116546113c5565b5b828203905092915050565b600061166b82610e78565b915061167683610e78565b9250817fffffffffffffffffffffffffffffffffffffffffffffffffffffffffffffffff04831182151516156116af576116ae6113c5565b5b828202905092915050565b60008160011c9050919050565b6000808291508390505b6001851115611711578086048111156116ed576116ec6113c5565b5b60018516156116fc5780820291505b808102905061170a856116ba565b94506116d1565b94509492505050565b60008261172a57600190506117e6565b8161173857600090506117e6565b816001811461174e576002811461175857611787565b60019150506117e6565b60ff84111561176a576117696113c5565b5b8360020a915084821115611781576117806113c5565b5b506117e6565b5060208310610133831016604e8410600b84101617156117bc5782820a9050838111156117b7576117b66113c5565b5b6117e6565b6117c984848460016116c7565b925090508184048111156117e0576117df6113c5565b5b81810290505b9392505050565b60006117f882610e78565b915061180383610e78565b92506118307fffffffffffffffffffffffffffffffffffffffffffffffffffffffffffffffff848461171a565b905092915050565b600060ff82169050919050565b600061185082611838565b915061185b83611838565b92508261186b5761186a611396565b5b828204905092915050565b600061188182611838565b915061188c83611838565b92508160ff04831182151516156118a6576118a56113c5565b5b828202905092915050565b60006118bc82611838565b91506118c783611838565b9250828210156118da576118d96113c5565b5b828203905092915050565b60006118f082611838565b91506118fb83611838565b92508260ff03821115611911576119106113c5565b5b82820190509291505056fea2646970667358221220106b77bb276f72031add16dbfab55a5ceb255b6919cb3367f26bd59261762a3e64736f6c634300080b0033",
      "opcodes": "PUSH1 0x80 PUSH1 0x40 MSTORE CALLVALUE DUP1 ISZERO PUSH3 0x11 JUMPI PUSH1 0x0 DUP1 REVERT JUMPDEST POP PUSH1 0x40 MLOAD PUSH3 0x1AD4 CODESIZE SUB DUP1 PUSH3 0x1AD4 DUP4 CODECOPY DUP2 DUP2 ADD PUSH1 0x40 MSTORE DUP2 ADD SWAP1 PUSH3 0x37 SWAP2 SWAP1 PUSH3 0x12B JUMP JUMPDEST DUP1 PUSH1 0x0 DUP1 PUSH2 0x100 EXP DUP2 SLOAD DUP2 PUSH20 0xFFFFFFFFFFFFFFFFFFFFFFFFFFFFFFFFFFFFFFFF MUL NOT AND SWAP1 DUP4 PUSH20 0xFFFFFFFFFFFFFFFFFFFFFFFFFFFFFFFFFFFFFFFF AND MUL OR SWAP1 SSTORE POP DUP2 PUSH1 0x1 DUP2 SWAP1 SSTORE POP POP POP PUSH3 0x172 JUMP JUMPDEST PUSH1 0x0 DUP1 REVERT JUMPDEST PUSH1 0x0 DUP2 SWAP1 POP SWAP2 SWAP1 POP JUMP JUMPDEST PUSH3 0xA0 DUP2 PUSH3 0x8B JUMP JUMPDEST DUP2 EQ PUSH3 0xAC JUMPI PUSH1 0x0 DUP1 REVERT JUMPDEST POP JUMP JUMPDEST PUSH1 0x0 DUP2 MLOAD SWAP1 POP PUSH3 0xC0 DUP2 PUSH3 0x95 JUMP JUMPDEST SWAP3 SWAP2 POP POP JUMP JUMPDEST PUSH1 0x0 PUSH20 0xFFFFFFFFFFFFFFFFFFFFFFFFFFFFFFFFFFFFFFFF DUP3 AND SWAP1 POP SWAP2 SWAP1 POP JUMP JUMPDEST PUSH1 0x0 PUSH3 0xF3 DUP3 PUSH3 0xC6 JUMP JUMPDEST SWAP1 POP SWAP2 SWAP1 POP JUMP JUMPDEST PUSH3 0x105 DUP2 PUSH3 0xE6 JUMP JUMPDEST DUP2 EQ PUSH3 0x111 JUMPI PUSH1 0x0 DUP1 REVERT JUMPDEST POP JUMP JUMPDEST PUSH1 0x0 DUP2 MLOAD SWAP1 POP PUSH3 0x125 DUP2 PUSH3 0xFA JUMP JUMPDEST SWAP3 SWAP2 POP POP JUMP JUMPDEST PUSH1 0x0 DUP1 PUSH1 0x40 DUP4 DUP6 SUB SLT ISZERO PUSH3 0x145 JUMPI PUSH3 0x144 PUSH3 0x86 JUMP JUMPDEST JUMPDEST PUSH1 0x0 PUSH3 0x155 DUP6 DUP3 DUP7 ADD PUSH3 0xAF JUMP JUMPDEST SWAP3 POP POP PUSH1 0x20 PUSH3 0x168 DUP6 DUP3 DUP7 ADD PUSH3 0x114 JUMP JUMPDEST SWAP2 POP POP SWAP3 POP SWAP3 SWAP1 POP JUMP JUMPDEST PUSH2 0x1952 DUP1 PUSH3 0x182 PUSH1 0x0 CODECOPY PUSH1 0x0 RETURN INVALID PUSH1 0x80 PUSH1 0x40 MSTORE PUSH1 0x4 CALLDATASIZE LT PUSH2 0x9C JUMPI PUSH1 0x0 CALLDATALOAD PUSH1 0xE0 SHR DUP1 PUSH4 0x82FDE093 GT PUSH2 0x64 JUMPI DUP1 PUSH4 0x82FDE093 EQ PUSH2 0x18C JUMPI DUP1 PUSH4 0x8A9CFD55 EQ PUSH2 0x1B7 JUMPI DUP1 PUSH4 0x937E09B1 EQ PUSH2 0x1E0 JUMPI DUP1 PUSH4 0xC58343EF EQ PUSH2 0x20B JUMPI DUP1 PUSH4 0xD7BB99BA EQ PUSH2 0x248 JUMPI DUP1 PUSH4 0xD7D1BBDB EQ PUSH2 0x252 JUMPI PUSH2 0x9C JUMP JUMPDEST DUP1 PUSH4 0x3441006 EQ PUSH2 0xA1 JUMPI DUP1 PUSH4 0xA144391 EQ PUSH2 0xCA JUMPI DUP1 PUSH4 0x3410452A EQ PUSH2 0x107 JUMPI DUP1 PUSH4 0x4051DDAC EQ PUSH2 0x132 JUMPI DUP1 PUSH4 0x481C6A75 EQ PUSH2 0x161 JUMPI JUMPDEST PUSH1 0x0 DUP1 REVERT JUMPDEST CALLVALUE DUP1 ISZERO PUSH2 0xAD JUMPI PUSH1 0x0 DUP1 REVERT JUMPDEST POP PUSH2 0xC8 PUSH1 0x4 DUP1 CALLDATASIZE SUB DUP2 ADD SWAP1 PUSH2 0xC3 SWAP2 SWAP1 PUSH2 0xEAE JUMP JUMPDEST PUSH2 0x27B JUMP JUMPDEST STOP JUMPDEST CALLVALUE DUP1 ISZERO PUSH2 0xD6 JUMPI PUSH1 0x0 DUP1 REVERT JUMPDEST POP PUSH2 0xF1 PUSH1 0x4 DUP1 CALLDATASIZE SUB DUP2 ADD SWAP1 PUSH2 0xEC SWAP2 SWAP1 PUSH2 0xF39 JUMP JUMPDEST PUSH2 0x3B4 JUMP JUMPDEST PUSH1 0x40 MLOAD PUSH2 0xFE SWAP2 SWAP1 PUSH2 0xF81 JUMP JUMPDEST PUSH1 0x40 MLOAD DUP1 SWAP2 SUB SWAP1 RETURN JUMPDEST CALLVALUE DUP1 ISZERO PUSH2 0x113 JUMPI PUSH1 0x0 DUP1 REVERT JUMPDEST POP PUSH2 0x11C PUSH2 0x3D4 JUMP JUMPDEST PUSH1 0x40 MLOAD PUSH2 0x129 SWAP2 SWAP1 PUSH2 0xFAB JUMP JUMPDEST PUSH1 0x40 MLOAD DUP1 SWAP2 SUB SWAP1 RETURN JUMPDEST CALLVALUE DUP1 ISZERO PUSH2 0x13E JUMPI PUSH1 0x0 DUP1 REVERT JUMPDEST POP PUSH2 0x147 PUSH2 0x3DE JUMP JUMPDEST PUSH1 0x40 MLOAD PUSH2 0x158 SWAP6 SWAP5 SWAP4 SWAP3 SWAP2 SWAP1 PUSH2 0xFD5 JUMP JUMPDEST PUSH1 0x40 MLOAD DUP1 SWAP2 SUB SWAP1 RETURN JUMPDEST CALLVALUE DUP1 ISZERO PUSH2 0x16D JUMPI PUSH1 0x0 DUP1 REVERT JUMPDEST POP PUSH2 0x176 PUSH2 0x422 JUMP JUMPDEST PUSH1 0x40 MLOAD PUSH2 0x183 SWAP2 SWAP1 PUSH2 0x1028 JUMP JUMPDEST PUSH1 0x40 MLOAD DUP1 SWAP2 SUB SWAP1 RETURN JUMPDEST CALLVALUE DUP1 ISZERO PUSH2 0x198 JUMPI PUSH1 0x0 DUP1 REVERT JUMPDEST POP PUSH2 0x1A1 PUSH2 0x446 JUMP JUMPDEST PUSH1 0x40 MLOAD PUSH2 0x1AE SWAP2 SWAP1 PUSH2 0xFAB JUMP JUMPDEST PUSH1 0x40 MLOAD DUP1 SWAP2 SUB SWAP1 RETURN JUMPDEST CALLVALUE DUP1 ISZERO PUSH2 0x1C3 JUMPI PUSH1 0x0 DUP1 REVERT JUMPDEST POP PUSH2 0x1DE PUSH1 0x4 DUP1 CALLDATASIZE SUB DUP2 ADD SWAP1 PUSH2 0x1D9 SWAP2 SWAP1 PUSH2 0x11C7 JUMP JUMPDEST PUSH2 0x44C JUMP JUMPDEST STOP JUMPDEST CALLVALUE DUP1 ISZERO PUSH2 0x1EC JUMPI PUSH1 0x0 DUP1 REVERT JUMPDEST POP PUSH2 0x1F5 PUSH2 0x54A JUMP JUMPDEST PUSH1 0x40 MLOAD PUSH2 0x202 SWAP2 SWAP1 PUSH2 0xFAB JUMP JUMPDEST PUSH1 0x40 MLOAD DUP1 SWAP2 SUB SWAP1 RETURN JUMPDEST CALLVALUE DUP1 ISZERO PUSH2 0x217 JUMPI PUSH1 0x0 DUP1 REVERT JUMPDEST POP PUSH2 0x232 PUSH1 0x4 DUP1 CALLDATASIZE SUB DUP2 ADD SWAP1 PUSH2 0x22D SWAP2 SWAP1 PUSH2 0xEAE JUMP JUMPDEST PUSH2 0x550 JUMP JUMPDEST PUSH1 0x40 MLOAD PUSH2 0x23F SWAP2 SWAP1 PUSH2 0x1374 JUMP JUMPDEST PUSH1 0x40 MLOAD DUP1 SWAP2 SUB SWAP1 RETURN JUMPDEST PUSH2 0x250 PUSH2 0x86C JUMP JUMPDEST STOP JUMPDEST CALLVALUE DUP1 ISZERO PUSH2 0x25E JUMPI PUSH1 0x0 DUP1 REVERT JUMPDEST POP PUSH2 0x279 PUSH1 0x4 DUP1 CALLDATASIZE SUB DUP2 ADD SWAP1 PUSH2 0x274 SWAP2 SWAP1 PUSH2 0xEAE JUMP JUMPDEST PUSH2 0x8EC JUMP JUMPDEST STOP JUMPDEST PUSH1 0x0 DUP1 SLOAD SWAP1 PUSH2 0x100 EXP SWAP1 DIV PUSH20 0xFFFFFFFFFFFFFFFFFFFFFFFFFFFFFFFFFFFFFFFF AND PUSH20 0xFFFFFFFFFFFFFFFFFFFFFFFFFFFFFFFFFFFFFFFF AND CALLER PUSH20 0xFFFFFFFFFFFFFFFFFFFFFFFFFFFFFFFFFFFFFFFF AND EQ PUSH2 0x2D3 JUMPI PUSH1 0x0 DUP1 REVERT JUMPDEST PUSH1 0x0 PUSH1 0x5 PUSH1 0x0 DUP4 DUP2 MSTORE PUSH1 0x20 ADD SWAP1 DUP2 MSTORE PUSH1 0x20 ADD PUSH1 0x0 KECCAK256 SWAP1 POP PUSH1 0x2 PUSH1 0x3 SLOAD PUSH2 0x2F9 SWAP2 SWAP1 PUSH2 0x13F4 JUMP JUMPDEST DUP2 PUSH1 0x3 ADD SLOAD GT PUSH2 0x308 JUMPI PUSH1 0x0 DUP1 REVERT JUMPDEST DUP1 PUSH1 0x2 ADD PUSH1 0x14 SWAP1 SLOAD SWAP1 PUSH2 0x100 EXP SWAP1 DIV PUSH1 0xFF AND ISZERO PUSH2 0x324 JUMPI PUSH1 0x0 DUP1 REVERT JUMPDEST DUP1 PUSH1 0x2 ADD PUSH1 0x0 SWAP1 SLOAD SWAP1 PUSH2 0x100 EXP SWAP1 DIV PUSH20 0xFFFFFFFFFFFFFFFFFFFFFFFFFFFFFFFFFFFFFFFF AND PUSH20 0xFFFFFFFFFFFFFFFFFFFFFFFFFFFFFFFFFFFFFFFF AND PUSH2 0x8FC DUP3 PUSH1 0x1 ADD SLOAD SWAP1 DUP2 ISZERO MUL SWAP1 PUSH1 0x40 MLOAD PUSH1 0x0 PUSH1 0x40 MLOAD DUP1 DUP4 SUB DUP2 DUP6 DUP9 DUP9 CALL SWAP4 POP POP POP POP ISZERO DUP1 ISZERO PUSH2 0x392 JUMPI RETURNDATASIZE PUSH1 0x0 DUP1 RETURNDATACOPY RETURNDATASIZE PUSH1 0x0 REVERT JUMPDEST POP PUSH1 0x1 DUP2 PUSH1 0x2 ADD PUSH1 0x14 PUSH2 0x100 EXP DUP2 SLOAD DUP2 PUSH1 0xFF MUL NOT AND SWAP1 DUP4 ISZERO ISZERO MUL OR SWAP1 SSTORE POP POP POP JUMP JUMPDEST PUSH1 0x2 PUSH1 0x20 MSTORE DUP1 PUSH1 0x0 MSTORE PUSH1 0x40 PUSH1 0x0 KECCAK256 PUSH1 0x0 SWAP2 POP SLOAD SWAP1 PUSH2 0x100 EXP SWAP1 DIV PUSH1 0xFF AND DUP2 JUMP JUMPDEST PUSH1 0x0 PUSH1 0x4 SLOAD SWAP1 POP SWAP1 JUMP JUMPDEST PUSH1 0x0 DUP1 PUSH1 0x0 DUP1 PUSH1 0x0 PUSH1 0x1 SLOAD SELFBALANCE PUSH1 0x4 SLOAD PUSH1 0x3 SLOAD PUSH1 0x0 DUP1 SLOAD SWAP1 PUSH2 0x100 EXP SWAP1 DIV PUSH20 0xFFFFFFFFFFFFFFFFFFFFFFFFFFFFFFFFFFFFFFFF AND SWAP5 POP SWAP5 POP SWAP5 POP SWAP5 POP SWAP5 POP SWAP1 SWAP2 SWAP3 SWAP4 SWAP5 JUMP JUMPDEST PUSH1 0x0 DUP1 SLOAD SWAP1 PUSH2 0x100 EXP SWAP1 DIV PUSH20 0xFFFFFFFFFFFFFFFFFFFFFFFFFFFFFFFFFFFFFFFF AND DUP2 JUMP JUMPDEST PUSH1 0x3 SLOAD DUP2 JUMP JUMPDEST PUSH1 0x0 DUP1 SLOAD SWAP1 PUSH2 0x100 EXP SWAP1 DIV PUSH20 0xFFFFFFFFFFFFFFFFFFFFFFFFFFFFFFFFFFFFFFFF AND PUSH20 0xFFFFFFFFFFFFFFFFFFFFFFFFFFFFFFFFFFFFFFFF AND CALLER PUSH20 0xFFFFFFFFFFFFFFFFFFFFFFFFFFFFFFFFFFFFFFFF AND EQ PUSH2 0x4A4 JUMPI PUSH1 0x0 DUP1 REVERT JUMPDEST PUSH1 0x0 PUSH1 0x5 PUSH1 0x0 PUSH1 0x4 SLOAD DUP2 MSTORE PUSH1 0x20 ADD SWAP1 DUP2 MSTORE PUSH1 0x20 ADD PUSH1 0x0 KECCAK256 SWAP1 POP PUSH1 0x4 PUSH1 0x0 DUP2 SLOAD DUP1 SWAP3 SWAP2 SWAP1 PUSH2 0x4D0 SWAP1 PUSH2 0x1425 JUMP JUMPDEST SWAP2 SWAP1 POP SSTORE POP DUP4 DUP2 PUSH1 0x0 ADD SWAP1 DUP1 MLOAD SWAP1 PUSH1 0x20 ADD SWAP1 PUSH2 0x4ED SWAP3 SWAP2 SWAP1 PUSH2 0xD9A JUMP JUMPDEST POP DUP3 DUP2 PUSH1 0x1 ADD DUP2 SWAP1 SSTORE POP DUP2 DUP2 PUSH1 0x2 ADD PUSH1 0x0 PUSH2 0x100 EXP DUP2 SLOAD DUP2 PUSH20 0xFFFFFFFFFFFFFFFFFFFFFFFFFFFFFFFFFFFFFFFF MUL NOT AND SWAP1 DUP4 PUSH20 0xFFFFFFFFFFFFFFFFFFFFFFFFFFFFFFFFFFFFFFFF AND MUL OR SWAP1 SSTORE POP PUSH1 0x0 DUP2 PUSH1 0x3 ADD DUP2 SWAP1 SSTORE POP POP POP POP POP JUMP JUMPDEST PUSH1 0x1 SLOAD DUP2 JUMP JUMPDEST PUSH2 0x558 PUSH2 0xE20 JUMP JUMPDEST PUSH2 0x560 PUSH2 0xE20 JUMP JUMPDEST PUSH1 0x0 PUSH1 0x5 PUSH1 0x0 DUP6 DUP2 MSTORE PUSH1 0x20 ADD SWAP1 DUP2 MSTORE PUSH1 0x20 ADD PUSH1 0x0 KECCAK256 SWAP1 POP PUSH1 0x0 DUP2 PUSH1 0x0 ADD DUP1 SLOAD PUSH2 0x588 SWAP1 PUSH2 0x149D JUMP JUMPDEST DUP1 PUSH1 0x1F ADD PUSH1 0x20 DUP1 SWAP2 DIV MUL PUSH1 0x20 ADD PUSH1 0x40 MLOAD SWAP1 DUP2 ADD PUSH1 0x40 MSTORE DUP1 SWAP3 SWAP2 SWAP1 DUP2 DUP2 MSTORE PUSH1 0x20 ADD DUP3 DUP1 SLOAD PUSH2 0x5B4 SWAP1 PUSH2 0x149D JUMP JUMPDEST DUP1 ISZERO PUSH2 0x601 JUMPI DUP1 PUSH1 0x1F LT PUSH2 0x5D6 JUMPI PUSH2 0x100 DUP1 DUP4 SLOAD DIV MUL DUP4 MSTORE SWAP2 PUSH1 0x20 ADD SWAP2 PUSH2 0x601 JUMP JUMPDEST DUP3 ADD SWAP2 SWAP1 PUSH1 0x0 MSTORE PUSH1 0x20 PUSH1 0x0 KECCAK256 SWAP1 JUMPDEST DUP2 SLOAD DUP2 MSTORE SWAP1 PUSH1 0x1 ADD SWAP1 PUSH1 0x20 ADD DUP1 DUP4 GT PUSH2 0x5E4 JUMPI DUP3 SWAP1 SUB PUSH1 0x1F AND DUP3 ADD SWAP2 JUMPDEST POP POP POP POP POP SWAP1 POP PUSH1 0x0 DUP2 MLOAD GT DUP1 ISZERO PUSH2 0x61D JUMPI POP PUSH1 0x0 DUP3 PUSH1 0x1 ADD SLOAD GT JUMPDEST PUSH2 0x65C JUMPI PUSH1 0x40 MLOAD PUSH32 0x8C379A000000000000000000000000000000000000000000000000000000000 DUP2 MSTORE PUSH1 0x4 ADD PUSH2 0x653 SWAP1 PUSH2 0x152C JUMP JUMPDEST PUSH1 0x40 MLOAD DUP1 SWAP2 SUB SWAP1 REVERT JUMPDEST DUP2 PUSH1 0x0 ADD DUP1 SLOAD PUSH2 0x66B SWAP1 PUSH2 0x149D JUMP JUMPDEST DUP1 PUSH1 0x1F ADD PUSH1 0x20 DUP1 SWAP2 DIV MUL PUSH1 0x20 ADD PUSH1 0x40 MLOAD SWAP1 DUP2 ADD PUSH1 0x40 MSTORE DUP1 SWAP3 SWAP2 SWAP1 DUP2 DUP2 MSTORE PUSH1 0x20 ADD DUP3 DUP1 SLOAD PUSH2 0x697 SWAP1 PUSH2 0x149D JUMP JUMPDEST DUP1 ISZERO PUSH2 0x6E4 JUMPI DUP1 PUSH1 0x1F LT PUSH2 0x6B9 JUMPI PUSH2 0x100 DUP1 DUP4 SLOAD DIV MUL DUP4 MSTORE SWAP2 PUSH1 0x20 ADD SWAP2 PUSH2 0x6E4 JUMP JUMPDEST DUP3 ADD SWAP2 SWAP1 PUSH1 0x0 MSTORE PUSH1 0x20 PUSH1 0x0 KECCAK256 SWAP1 JUMPDEST DUP2 SLOAD DUP2 MSTORE SWAP1 PUSH1 0x1 ADD SWAP1 PUSH1 0x20 ADD DUP1 DUP4 GT PUSH2 0x6C7 JUMPI DUP3 SWAP1 SUB PUSH1 0x1F AND DUP3 ADD SWAP2 JUMPDEST POP POP POP POP POP DUP4 PUSH1 0x0 PUSH1 0x5 DUP2 LT PUSH2 0x6FD JUMPI PUSH2 0x6FC PUSH2 0x154C JUMP JUMPDEST JUMPDEST PUSH1 0x20 MUL ADD DUP2 SWAP1 MSTORE POP PUSH2 0x712 DUP3 PUSH1 0x1 ADD SLOAD PUSH2 0xA2A JUMP JUMPDEST DUP4 PUSH1 0x1 PUSH1 0x5 DUP2 LT PUSH2 0x726 JUMPI PUSH2 0x725 PUSH2 0x154C JUMP JUMPDEST JUMPDEST PUSH1 0x20 MUL ADD DUP2 SWAP1 MSTORE POP PUSH2 0x75B DUP3 PUSH1 0x2 ADD PUSH1 0x0 SWAP1 SLOAD SWAP1 PUSH2 0x100 EXP SWAP1 DIV PUSH20 0xFFFFFFFFFFFFFFFFFFFFFFFFFFFFFFFFFFFFFFFF AND PUSH2 0xB91 JUMP JUMPDEST DUP4 PUSH1 0x2 PUSH1 0x5 DUP2 LT PUSH2 0x76F JUMPI PUSH2 0x76E PUSH2 0x154C JUMP JUMPDEST JUMPDEST PUSH1 0x20 MUL ADD DUP2 SWAP1 MSTORE POP PUSH2 0x784 DUP3 PUSH1 0x3 ADD SLOAD PUSH2 0xA2A JUMP JUMPDEST DUP4 PUSH1 0x3 PUSH1 0x5 DUP2 LT PUSH2 0x798 JUMPI PUSH2 0x797 PUSH2 0x154C JUMP JUMPDEST JUMPDEST PUSH1 0x20 MUL ADD DUP2 SWAP1 MSTORE POP DUP2 PUSH1 0x2 ADD PUSH1 0x14 SWAP1 SLOAD SWAP1 PUSH2 0x100 EXP SWAP1 DIV PUSH1 0xFF AND ISZERO PUSH2 0x80E JUMPI PUSH1 0x40 MLOAD DUP1 PUSH1 0x40 ADD PUSH1 0x40 MSTORE DUP1 PUSH1 0x8 DUP2 MSTORE PUSH1 0x20 ADD PUSH32 0x636F6D706C657465000000000000000000000000000000000000000000000000 DUP2 MSTORE POP DUP4 PUSH1 0x4 PUSH1 0x5 DUP2 LT PUSH2 0x801 JUMPI PUSH2 0x800 PUSH2 0x154C JUMP JUMPDEST JUMPDEST PUSH1 0x20 MUL ADD DUP2 SWAP1 MSTORE POP PUSH2 0x861 JUMP JUMPDEST PUSH1 0x40 MLOAD DUP1 PUSH1 0x40 ADD PUSH1 0x40 MSTORE DUP1 PUSH1 0xA DUP2 MSTORE PUSH1 0x20 ADD PUSH32 0x756E636F6D706C65746500000000000000000000000000000000000000000000 DUP2 MSTORE POP DUP4 PUSH1 0x4 PUSH1 0x5 DUP2 LT PUSH2 0x858 JUMPI PUSH2 0x857 PUSH2 0x154C JUMP JUMPDEST JUMPDEST PUSH1 0x20 MUL ADD DUP2 SWAP1 MSTORE POP JUMPDEST DUP3 SWAP4 POP POP POP POP SWAP2 SWAP1 POP JUMP JUMPDEST PUSH1 0x1 SLOAD CALLVALUE GT PUSH2 0x87A JUMPI PUSH1 0x0 DUP1 REVERT JUMPDEST PUSH1 0x1 PUSH1 0x2 PUSH1 0x0 CALLER PUSH20 0xFFFFFFFFFFFFFFFFFFFFFFFFFFFFFFFFFFFFFFFF AND PUSH20 0xFFFFFFFFFFFFFFFFFFFFFFFFFFFFFFFFFFFFFFFF AND DUP2 MSTORE PUSH1 0x20 ADD SWAP1 DUP2 MSTORE PUSH1 0x20 ADD PUSH1 0x0 KECCAK256 PUSH1 0x0 PUSH2 0x100 EXP DUP2 SLOAD DUP2 PUSH1 0xFF MUL NOT AND SWAP1 DUP4 ISZERO ISZERO MUL OR SWAP1 SSTORE POP PUSH1 0x3 PUSH1 0x0 DUP2 SLOAD DUP1 SWAP3 SWAP2 SWAP1 PUSH2 0x8E5 SWAP1 PUSH2 0x1425 JUMP JUMPDEST SWAP2 SWAP1 POP SSTORE POP JUMP JUMPDEST PUSH1 0x0 PUSH1 0x5 PUSH1 0x0 DUP4 DUP2 MSTORE PUSH1 0x20 ADD SWAP1 DUP2 MSTORE PUSH1 0x20 ADD PUSH1 0x0 KECCAK256 SWAP1 POP PUSH1 0x2 PUSH1 0x0 CALLER PUSH20 0xFFFFFFFFFFFFFFFFFFFFFFFFFFFFFFFFFFFFFFFF AND PUSH20 0xFFFFFFFFFFFFFFFFFFFFFFFFFFFFFFFFFFFFFFFF AND DUP2 MSTORE PUSH1 0x20 ADD SWAP1 DUP2 MSTORE PUSH1 0x20 ADD PUSH1 0x0 KECCAK256 PUSH1 0x0 SWAP1 SLOAD SWAP1 PUSH2 0x100 EXP SWAP1 DIV PUSH1 0xFF AND PUSH2 0x959 JUMPI PUSH1 0x0 DUP1 REVERT JUMPDEST DUP1 PUSH1 0x4 ADD PUSH1 0x0 CALLER PUSH20 0xFFFFFFFFFFFFFFFFFFFFFFFFFFFFFFFFFFFFFFFF AND PUSH20 0xFFFFFFFFFFFFFFFFFFFFFFFFFFFFFFFFFFFFFFFF AND DUP2 MSTORE PUSH1 0x20 ADD SWAP1 DUP2 MSTORE PUSH1 0x20 ADD PUSH1 0x0 KECCAK256 PUSH1 0x0 SWAP1 SLOAD SWAP1 PUSH2 0x100 EXP SWAP1 DIV PUSH1 0xFF AND ISZERO PUSH2 0x9B2 JUMPI PUSH1 0x0 DUP1 REVERT JUMPDEST PUSH1 0x1 DUP2 PUSH1 0x4 ADD PUSH1 0x0 CALLER PUSH20 0xFFFFFFFFFFFFFFFFFFFFFFFFFFFFFFFFFFFFFFFF AND PUSH20 0xFFFFFFFFFFFFFFFFFFFFFFFFFFFFFFFFFFFFFFFF AND DUP2 MSTORE PUSH1 0x20 ADD SWAP1 DUP2 MSTORE PUSH1 0x20 ADD PUSH1 0x0 KECCAK256 PUSH1 0x0 PUSH2 0x100 EXP DUP2 SLOAD DUP2 PUSH1 0xFF MUL NOT AND SWAP1 DUP4 ISZERO ISZERO MUL OR SWAP1 SSTORE POP DUP1 PUSH1 0x3 ADD PUSH1 0x0 DUP2 SLOAD DUP1 SWAP3 SWAP2 SWAP1 PUSH2 0xA21 SWAP1 PUSH2 0x1425 JUMP JUMPDEST SWAP2 SWAP1 POP SSTORE POP POP POP JUMP JUMPDEST PUSH1 0x60 PUSH1 0x0 DUP3 EQ ISZERO PUSH2 0xA72 JUMPI PUSH1 0x40 MLOAD DUP1 PUSH1 0x40 ADD PUSH1 0x40 MSTORE DUP1 PUSH1 0x1 DUP2 MSTORE PUSH1 0x20 ADD PUSH32 0x3000000000000000000000000000000000000000000000000000000000000000 DUP2 MSTORE POP SWAP1 POP PUSH2 0xB8C JUMP JUMPDEST PUSH1 0x0 DUP3 SWAP1 POP PUSH1 0x0 JUMPDEST PUSH1 0x0 DUP3 EQ PUSH2 0xAA4 JUMPI DUP1 DUP1 PUSH2 0xA8D SWAP1 PUSH2 0x1425 JUMP JUMPDEST SWAP2 POP POP PUSH1 0xA DUP3 PUSH2 0xA9D SWAP2 SWAP1 PUSH2 0x13F4 JUMP JUMPDEST SWAP2 POP PUSH2 0xA7A JUMP JUMPDEST PUSH1 0x0 DUP2 PUSH8 0xFFFFFFFFFFFFFFFF DUP2 GT ISZERO PUSH2 0xAC0 JUMPI PUSH2 0xABF PUSH2 0x105E JUMP JUMPDEST JUMPDEST PUSH1 0x40 MLOAD SWAP1 DUP1 DUP3 MSTORE DUP1 PUSH1 0x1F ADD PUSH1 0x1F NOT AND PUSH1 0x20 ADD DUP3 ADD PUSH1 0x40 MSTORE DUP1 ISZERO PUSH2 0xAF2 JUMPI DUP2 PUSH1 0x20 ADD PUSH1 0x1 DUP3 MUL DUP1 CALLDATASIZE DUP4 CALLDATACOPY DUP1 DUP3 ADD SWAP2 POP POP SWAP1 POP JUMPDEST POP SWAP1 POP PUSH1 0x0 DUP3 SWAP1 POP DUP6 SWAP4 POP JUMPDEST PUSH1 0x0 DUP5 EQ PUSH2 0xB84 JUMPI PUSH1 0xA DUP5 PUSH2 0xB13 SWAP2 SWAP1 PUSH2 0x157B JUMP JUMPDEST PUSH1 0x30 PUSH2 0xB1F SWAP2 SWAP1 PUSH2 0x15AC JUMP JUMPDEST PUSH1 0xF8 SHL DUP3 DUP3 PUSH2 0xB2D SWAP1 PUSH2 0x1602 JUMP JUMPDEST SWAP3 POP DUP3 DUP2 MLOAD DUP2 LT PUSH2 0xB41 JUMPI PUSH2 0xB40 PUSH2 0x154C JUMP JUMPDEST JUMPDEST PUSH1 0x20 ADD ADD SWAP1 PUSH31 0xFFFFFFFFFFFFFFFFFFFFFFFFFFFFFFFFFFFFFFFFFFFFFFFFFFFFFFFFFFFFFF NOT AND SWAP1 DUP2 PUSH1 0x0 BYTE SWAP1 MSTORE8 POP PUSH1 0xA DUP5 PUSH2 0xB7D SWAP2 SWAP1 PUSH2 0x13F4 JUMP JUMPDEST SWAP4 POP PUSH2 0xAFE JUMP JUMPDEST DUP2 SWAP5 POP POP POP POP POP JUMPDEST SWAP2 SWAP1 POP JUMP JUMPDEST PUSH1 0x60 PUSH1 0x0 PUSH1 0x28 PUSH8 0xFFFFFFFFFFFFFFFF DUP2 GT ISZERO PUSH2 0xBB0 JUMPI PUSH2 0xBAF PUSH2 0x105E JUMP JUMPDEST JUMPDEST PUSH1 0x40 MLOAD SWAP1 DUP1 DUP3 MSTORE DUP1 PUSH1 0x1F ADD PUSH1 0x1F NOT AND PUSH1 0x20 ADD DUP3 ADD PUSH1 0x40 MSTORE DUP1 ISZERO PUSH2 0xBE2 JUMPI DUP2 PUSH1 0x20 ADD PUSH1 0x1 DUP3 MUL DUP1 CALLDATASIZE DUP4 CALLDATACOPY DUP1 DUP3 ADD SWAP2 POP POP SWAP1 POP JUMPDEST POP SWAP1 POP PUSH1 0x0 JUMPDEST PUSH1 0x14 DUP2 LT ISZERO PUSH2 0xD4A JUMPI PUSH1 0x0 DUP2 PUSH1 0x13 PUSH2 0xC00 SWAP2 SWAP1 PUSH2 0x162C JUMP JUMPDEST PUSH1 0x8 PUSH2 0xC0C SWAP2 SWAP1 PUSH2 0x1660 JUMP JUMPDEST PUSH1 0x2 PUSH2 0xC18 SWAP2 SWAP1 PUSH2 0x17ED JUMP JUMPDEST DUP6 PUSH20 0xFFFFFFFFFFFFFFFFFFFFFFFFFFFFFFFFFFFFFFFF AND PUSH2 0xC39 SWAP2 SWAP1 PUSH2 0x13F4 JUMP JUMPDEST PUSH1 0xF8 SHL SWAP1 POP PUSH1 0x0 PUSH1 0x10 DUP3 PUSH1 0xF8 SHR PUSH2 0xC50 SWAP2 SWAP1 PUSH2 0x1845 JUMP JUMPDEST PUSH1 0xF8 SHL SWAP1 POP PUSH1 0x0 DUP2 PUSH1 0xF8 SHR PUSH1 0x10 PUSH2 0xC67 SWAP2 SWAP1 PUSH2 0x1876 JUMP JUMPDEST DUP4 PUSH1 0xF8 SHR PUSH2 0xC75 SWAP2 SWAP1 PUSH2 0x18B1 JUMP JUMPDEST PUSH1 0xF8 SHL SWAP1 POP PUSH2 0xC83 DUP3 PUSH2 0xD54 JUMP JUMPDEST DUP6 DUP6 PUSH1 0x2 PUSH2 0xC91 SWAP2 SWAP1 PUSH2 0x1660 JUMP JUMPDEST DUP2 MLOAD DUP2 LT PUSH2 0xCA2 JUMPI PUSH2 0xCA1 PUSH2 0x154C JUMP JUMPDEST JUMPDEST PUSH1 0x20 ADD ADD SWAP1 PUSH31 0xFFFFFFFFFFFFFFFFFFFFFFFFFFFFFFFFFFFFFFFFFFFFFFFFFFFFFFFFFFFFFF NOT AND SWAP1 DUP2 PUSH1 0x0 BYTE SWAP1 MSTORE8 POP PUSH2 0xCDA DUP2 PUSH2 0xD54 JUMP JUMPDEST DUP6 PUSH1 0x1 DUP7 PUSH1 0x2 PUSH2 0xCEA SWAP2 SWAP1 PUSH2 0x1660 JUMP JUMPDEST PUSH2 0xCF4 SWAP2 SWAP1 PUSH2 0x15AC JUMP JUMPDEST DUP2 MLOAD DUP2 LT PUSH2 0xD05 JUMPI PUSH2 0xD04 PUSH2 0x154C JUMP JUMPDEST JUMPDEST PUSH1 0x20 ADD ADD SWAP1 PUSH31 0xFFFFFFFFFFFFFFFFFFFFFFFFFFFFFFFFFFFFFFFFFFFFFFFFFFFFFFFFFFFFFF NOT AND SWAP1 DUP2 PUSH1 0x0 BYTE SWAP1 MSTORE8 POP POP POP POP DUP1 DUP1 PUSH2 0xD42 SWAP1 PUSH2 0x1425 JUMP JUMPDEST SWAP2 POP POP PUSH2 0xBE8 JUMP JUMPDEST POP DUP1 SWAP2 POP POP SWAP2 SWAP1 POP JUMP JUMPDEST PUSH1 0x0 PUSH1 0xA DUP3 PUSH1 0xF8 SHR PUSH1 0xFF AND LT ISZERO PUSH2 0xD7F JUMPI PUSH1 0x30 DUP3 PUSH1 0xF8 SHR PUSH2 0xD75 SWAP2 SWAP1 PUSH2 0x18E5 JUMP JUMPDEST PUSH1 0xF8 SHL SWAP1 POP PUSH2 0xD95 JUMP JUMPDEST PUSH1 0x57 DUP3 PUSH1 0xF8 SHR PUSH2 0xD8F SWAP2 SWAP1 PUSH2 0x18E5 JUMP JUMPDEST PUSH1 0xF8 SHL SWAP1 POP JUMPDEST SWAP2 SWAP1 POP JUMP JUMPDEST DUP3 DUP1 SLOAD PUSH2 0xDA6 SWAP1 PUSH2 0x149D JUMP JUMPDEST SWAP1 PUSH1 0x0 MSTORE PUSH1 0x20 PUSH1 0x0 KECCAK256 SWAP1 PUSH1 0x1F ADD PUSH1 0x20 SWAP1 DIV DUP2 ADD SWAP3 DUP3 PUSH2 0xDC8 JUMPI PUSH1 0x0 DUP6 SSTORE PUSH2 0xE0F JUMP JUMPDEST DUP3 PUSH1 0x1F LT PUSH2 0xDE1 JUMPI DUP1 MLOAD PUSH1 0xFF NOT AND DUP4 DUP1 ADD OR DUP6 SSTORE PUSH2 0xE0F JUMP JUMPDEST DUP3 DUP1 ADD PUSH1 0x1 ADD DUP6 SSTORE DUP3 ISZERO PUSH2 0xE0F JUMPI SWAP2 DUP3 ADD JUMPDEST DUP3 DUP2 GT ISZERO PUSH2 0xE0E JUMPI DUP3 MLOAD DUP3 SSTORE SWAP2 PUSH1 0x20 ADD SWAP2 SWAP1 PUSH1 0x1 ADD SWAP1 PUSH2 0xDF3 JUMP JUMPDEST JUMPDEST POP SWAP1 POP PUSH2 0xE1C SWAP2 SWAP1 PUSH2 0xE47 JUMP JUMPDEST POP SWAP1 JUMP JUMPDEST PUSH1 0x40 MLOAD DUP1 PUSH1 0xA0 ADD PUSH1 0x40 MSTORE DUP1 PUSH1 0x5 SWAP1 JUMPDEST PUSH1 0x60 DUP2 MSTORE PUSH1 0x20 ADD SWAP1 PUSH1 0x1 SWAP1 SUB SWAP1 DUP2 PUSH2 0xE2F JUMPI SWAP1 POP POP SWAP1 JUMP JUMPDEST JUMPDEST DUP1 DUP3 GT ISZERO PUSH2 0xE60 JUMPI PUSH1 0x0 DUP2 PUSH1 0x0 SWAP1 SSTORE POP PUSH1 0x1 ADD PUSH2 0xE48 JUMP JUMPDEST POP SWAP1 JUMP JUMPDEST PUSH1 0x0 PUSH1 0x40 MLOAD SWAP1 POP SWAP1 JUMP JUMPDEST PUSH1 0x0 DUP1 REVERT JUMPDEST PUSH1 0x0 DUP1 REVERT JUMPDEST PUSH1 0x0 DUP2 SWAP1 POP SWAP2 SWAP1 POP JUMP JUMPDEST PUSH2 0xE8B DUP2 PUSH2 0xE78 JUMP JUMPDEST DUP2 EQ PUSH2 0xE96 JUMPI PUSH1 0x0 DUP1 REVERT JUMPDEST POP JUMP JUMPDEST PUSH1 0x0 DUP2 CALLDATALOAD SWAP1 POP PUSH2 0xEA8 DUP2 PUSH2 0xE82 JUMP JUMPDEST SWAP3 SWAP2 POP POP JUMP JUMPDEST PUSH1 0x0 PUSH1 0x20 DUP3 DUP5 SUB SLT ISZERO PUSH2 0xEC4 JUMPI PUSH2 0xEC3 PUSH2 0xE6E JUMP JUMPDEST JUMPDEST PUSH1 0x0 PUSH2 0xED2 DUP5 DUP3 DUP6 ADD PUSH2 0xE99 JUMP JUMPDEST SWAP2 POP POP SWAP3 SWAP2 POP POP JUMP JUMPDEST PUSH1 0x0 PUSH20 0xFFFFFFFFFFFFFFFFFFFFFFFFFFFFFFFFFFFFFFFF DUP3 AND SWAP1 POP SWAP2 SWAP1 POP JUMP JUMPDEST PUSH1 0x0 PUSH2 0xF06 DUP3 PUSH2 0xEDB JUMP JUMPDEST SWAP1 POP SWAP2 SWAP1 POP JUMP JUMPDEST PUSH2 0xF16 DUP2 PUSH2 0xEFB JUMP JUMPDEST DUP2 EQ PUSH2 0xF21 JUMPI PUSH1 0x0 DUP1 REVERT JUMPDEST POP JUMP JUMPDEST PUSH1 0x0 DUP2 CALLDATALOAD SWAP1 POP PUSH2 0xF33 DUP2 PUSH2 0xF0D JUMP JUMPDEST SWAP3 SWAP2 POP POP JUMP JUMPDEST PUSH1 0x0 PUSH1 0x20 DUP3 DUP5 SUB SLT ISZERO PUSH2 0xF4F JUMPI PUSH2 0xF4E PUSH2 0xE6E JUMP JUMPDEST JUMPDEST PUSH1 0x0 PUSH2 0xF5D DUP5 DUP3 DUP6 ADD PUSH2 0xF24 JUMP JUMPDEST SWAP2 POP POP SWAP3 SWAP2 POP POP JUMP JUMPDEST PUSH1 0x0 DUP2 ISZERO ISZERO SWAP1 POP SWAP2 SWAP1 POP JUMP JUMPDEST PUSH2 0xF7B DUP2 PUSH2 0xF66 JUMP JUMPDEST DUP3 MSTORE POP POP JUMP JUMPDEST PUSH1 0x0 PUSH1 0x20 DUP3 ADD SWAP1 POP PUSH2 0xF96 PUSH1 0x0 DUP4 ADD DUP5 PUSH2 0xF72 JUMP JUMPDEST SWAP3 SWAP2 POP POP JUMP JUMPDEST PUSH2 0xFA5 DUP2 PUSH2 0xE78 JUMP JUMPDEST DUP3 MSTORE POP POP JUMP JUMPDEST PUSH1 0x0 PUSH1 0x20 DUP3 ADD SWAP1 POP PUSH2 0xFC0 PUSH1 0x0 DUP4 ADD DUP5 PUSH2 0xF9C JUMP JUMPDEST SWAP3 SWAP2 POP POP JUMP JUMPDEST PUSH2 0xFCF DUP2 PUSH2 0xEFB JUMP JUMPDEST DUP3 MSTORE POP POP JUMP JUMPDEST PUSH1 0x0 PUSH1 0xA0 DUP3 ADD SWAP1 POP PUSH2 0xFEA PUSH1 0x0 DUP4 ADD DUP9 PUSH2 0xF9C JUMP JUMPDEST PUSH2 0xFF7 PUSH1 0x20 DUP4 ADD DUP8 PUSH2 0xF9C JUMP JUMPDEST PUSH2 0x1004 PUSH1 0x40 DUP4 ADD DUP7 PUSH2 0xF9C JUMP JUMPDEST PUSH2 0x1011 PUSH1 0x60 DUP4 ADD DUP6 PUSH2 0xF9C JUMP JUMPDEST PUSH2 0x101E PUSH1 0x80 DUP4 ADD DUP5 PUSH2 0xFC6 JUMP JUMPDEST SWAP7 SWAP6 POP POP POP POP POP POP JUMP JUMPDEST PUSH1 0x0 PUSH1 0x20 DUP3 ADD SWAP1 POP PUSH2 0x103D PUSH1 0x0 DUP4 ADD DUP5 PUSH2 0xFC6 JUMP JUMPDEST SWAP3 SWAP2 POP POP JUMP JUMPDEST PUSH1 0x0 DUP1 REVERT JUMPDEST PUSH1 0x0 DUP1 REVERT JUMPDEST PUSH1 0x0 PUSH1 0x1F NOT PUSH1 0x1F DUP4 ADD AND SWAP1 POP SWAP2 SWAP1 POP JUMP JUMPDEST PUSH32 0x4E487B7100000000000000000000000000000000000000000000000000000000 PUSH1 0x0 MSTORE PUSH1 0x41 PUSH1 0x4 MSTORE PUSH1 0x24 PUSH1 0x0 REVERT JUMPDEST PUSH2 0x1096 DUP3 PUSH2 0x104D JUMP JUMPDEST DUP2 ADD DUP2 DUP2 LT PUSH8 0xFFFFFFFFFFFFFFFF DUP3 GT OR ISZERO PUSH2 0x10B5 JUMPI PUSH2 0x10B4 PUSH2 0x105E JUMP JUMPDEST JUMPDEST DUP1 PUSH1 0x40 MSTORE POP POP POP JUMP JUMPDEST PUSH1 0x0 PUSH2 0x10C8 PUSH2 0xE64 JUMP JUMPDEST SWAP1 POP PUSH2 0x10D4 DUP3 DUP3 PUSH2 0x108D JUMP JUMPDEST SWAP2 SWAP1 POP JUMP JUMPDEST PUSH1 0x0 PUSH8 0xFFFFFFFFFFFFFFFF DUP3 GT ISZERO PUSH2 0x10F4 JUMPI PUSH2 0x10F3 PUSH2 0x105E JUMP JUMPDEST JUMPDEST PUSH2 0x10FD DUP3 PUSH2 0x104D JUMP JUMPDEST SWAP1 POP PUSH1 0x20 DUP2 ADD SWAP1 POP SWAP2 SWAP1 POP JUMP JUMPDEST DUP3 DUP2 DUP4 CALLDATACOPY PUSH1 0x0 DUP4 DUP4 ADD MSTORE POP POP POP JUMP JUMPDEST PUSH1 0x0 PUSH2 0x112C PUSH2 0x1127 DUP5 PUSH2 0x10D9 JUMP JUMPDEST PUSH2 0x10BE JUMP JUMPDEST SWAP1 POP DUP3 DUP2 MSTORE PUSH1 0x20 DUP2 ADD DUP5 DUP5 DUP5 ADD GT ISZERO PUSH2 0x1148 JUMPI PUSH2 0x1147 PUSH2 0x1048 JUMP JUMPDEST JUMPDEST PUSH2 0x1153 DUP5 DUP3 DUP6 PUSH2 0x110A JUMP JUMPDEST POP SWAP4 SWAP3 POP POP POP JUMP JUMPDEST PUSH1 0x0 DUP3 PUSH1 0x1F DUP4 ADD SLT PUSH2 0x1170 JUMPI PUSH2 0x116F PUSH2 0x1043 JUMP JUMPDEST JUMPDEST DUP2 CALLDATALOAD PUSH2 0x1180 DUP5 DUP3 PUSH1 0x20 DUP7 ADD PUSH2 0x1119 JUMP JUMPDEST SWAP2 POP POP SWAP3 SWAP2 POP POP JUMP JUMPDEST PUSH1 0x0 PUSH2 0x1194 DUP3 PUSH2 0xEDB JUMP JUMPDEST SWAP1 POP SWAP2 SWAP1 POP JUMP JUMPDEST PUSH2 0x11A4 DUP2 PUSH2 0x1189 JUMP JUMPDEST DUP2 EQ PUSH2 0x11AF JUMPI PUSH1 0x0 DUP1 REVERT JUMPDEST POP JUMP JUMPDEST PUSH1 0x0 DUP2 CALLDATALOAD SWAP1 POP PUSH2 0x11C1 DUP2 PUSH2 0x119B JUMP JUMPDEST SWAP3 SWAP2 POP POP JUMP JUMPDEST PUSH1 0x0 DUP1 PUSH1 0x0 PUSH1 0x60 DUP5 DUP7 SUB SLT ISZERO PUSH2 0x11E0 JUMPI PUSH2 0x11DF PUSH2 0xE6E JUMP JUMPDEST JUMPDEST PUSH1 0x0 DUP5 ADD CALLDATALOAD PUSH8 0xFFFFFFFFFFFFFFFF DUP2 GT ISZERO PUSH2 0x11FE JUMPI PUSH2 0x11FD PUSH2 0xE73 JUMP JUMPDEST JUMPDEST PUSH2 0x120A DUP7 DUP3 DUP8 ADD PUSH2 0x115B JUMP JUMPDEST SWAP4 POP POP PUSH1 0x20 PUSH2 0x121B DUP7 DUP3 DUP8 ADD PUSH2 0xE99 JUMP JUMPDEST SWAP3 POP POP PUSH1 0x40 PUSH2 0x122C DUP7 DUP3 DUP8 ADD PUSH2 0x11B2 JUMP JUMPDEST SWAP2 POP POP SWAP3 POP SWAP3 POP SWAP3 JUMP JUMPDEST PUSH1 0x0 PUSH1 0x5 SWAP1 POP SWAP2 SWAP1 POP JUMP JUMPDEST PUSH1 0x0 DUP2 SWAP1 POP SWAP3 SWAP2 POP POP JUMP JUMPDEST PUSH1 0x0 DUP2 SWAP1 POP SWAP2 SWAP1 POP JUMP JUMPDEST PUSH1 0x0 DUP2 MLOAD SWAP1 POP SWAP2 SWAP1 POP JUMP JUMPDEST PUSH1 0x0 DUP3 DUP3 MSTORE PUSH1 0x20 DUP3 ADD SWAP1 POP SWAP3 SWAP2 POP POP JUMP JUMPDEST PUSH1 0x0 JUMPDEST DUP4 DUP2 LT ISZERO PUSH2 0x1290 JUMPI DUP1 DUP3 ADD MLOAD DUP2 DUP5 ADD MSTORE PUSH1 0x20 DUP2 ADD SWAP1 POP PUSH2 0x1275 JUMP JUMPDEST DUP4 DUP2 GT ISZERO PUSH2 0x129F JUMPI PUSH1 0x0 DUP5 DUP5 ADD MSTORE JUMPDEST POP POP POP POP JUMP JUMPDEST PUSH1 0x0 PUSH2 0x12B0 DUP3 PUSH2 0x1256 JUMP JUMPDEST PUSH2 0x12BA DUP2 DUP6 PUSH2 0x1261 JUMP JUMPDEST SWAP4 POP PUSH2 0x12CA DUP2 DUP6 PUSH1 0x20 DUP7 ADD PUSH2 0x1272 JUMP JUMPDEST PUSH2 0x12D3 DUP2 PUSH2 0x104D JUMP JUMPDEST DUP5 ADD SWAP2 POP POP SWAP3 SWAP2 POP POP JUMP JUMPDEST PUSH1 0x0 PUSH2 0x12EA DUP4 DUP4 PUSH2 0x12A5 JUMP JUMPDEST SWAP1 POP SWAP3 SWAP2 POP POP JUMP JUMPDEST PUSH1 0x0 PUSH1 0x20 DUP3 ADD SWAP1 POP SWAP2 SWAP1 POP JUMP JUMPDEST PUSH1 0x0 PUSH2 0x130A DUP3 PUSH2 0x1236 JUMP JUMPDEST PUSH2 0x1314 DUP2 DUP6 PUSH2 0x1241 JUMP JUMPDEST SWAP4 POP DUP4 PUSH1 0x20 DUP3 MUL DUP6 ADD PUSH2 0x1326 DUP6 PUSH2 0x124C JUMP JUMPDEST DUP1 PUSH1 0x0 JUMPDEST DUP6 DUP2 LT ISZERO PUSH2 0x1362 JUMPI DUP5 DUP5 SUB DUP10 MSTORE DUP2 MLOAD PUSH2 0x1343 DUP6 DUP3 PUSH2 0x12DE JUMP JUMPDEST SWAP5 POP PUSH2 0x134E DUP4 PUSH2 0x12F2 JUMP JUMPDEST SWAP3 POP PUSH1 0x20 DUP11 ADD SWAP10 POP POP PUSH1 0x1 DUP2 ADD SWAP1 POP PUSH2 0x132A JUMP JUMPDEST POP DUP3 SWAP8 POP DUP8 SWAP6 POP POP POP POP POP POP SWAP3 SWAP2 POP POP JUMP JUMPDEST PUSH1 0x0 PUSH1 0x20 DUP3 ADD SWAP1 POP DUP2 DUP2 SUB PUSH1 0x0 DUP4 ADD MSTORE PUSH2 0x138E DUP2 DUP5 PUSH2 0x12FF JUMP JUMPDEST SWAP1 POP SWAP3 SWAP2 POP POP JUMP JUMPDEST PUSH32 0x4E487B7100000000000000000000000000000000000000000000000000000000 PUSH1 0x0 MSTORE PUSH1 0x12 PUSH1 0x4 MSTORE PUSH1 0x24 PUSH1 0x0 REVERT JUMPDEST PUSH32 0x4E487B7100000000000000000000000000000000000000000000000000000000 PUSH1 0x0 MSTORE PUSH1 0x11 PUSH1 0x4 MSTORE PUSH1 0x24 PUSH1 0x0 REVERT JUMPDEST PUSH1 0x0 PUSH2 0x13FF DUP3 PUSH2 0xE78 JUMP JUMPDEST SWAP2 POP PUSH2 0x140A DUP4 PUSH2 0xE78 JUMP JUMPDEST SWAP3 POP DUP3 PUSH2 0x141A JUMPI PUSH2 0x1419 PUSH2 0x1396 JUMP JUMPDEST JUMPDEST DUP3 DUP3 DIV SWAP1 POP SWAP3 SWAP2 POP POP JUMP JUMPDEST PUSH1 0x0 PUSH2 0x1430 DUP3 PUSH2 0xE78 JUMP JUMPDEST SWAP2 POP PUSH32 0xFFFFFFFFFFFFFFFFFFFFFFFFFFFFFFFFFFFFFFFFFFFFFFFFFFFFFFFFFFFFFFFF DUP3 EQ ISZERO PUSH2 0x1463 JUMPI PUSH2 0x1462 PUSH2 0x13C5 JUMP JUMPDEST JUMPDEST PUSH1 0x1 DUP3 ADD SWAP1 POP SWAP2 SWAP1 POP JUMP JUMPDEST PUSH32 0x4E487B7100000000000000000000000000000000000000000000000000000000 PUSH1 0x0 MSTORE PUSH1 0x22 PUSH1 0x4 MSTORE PUSH1 0x24 PUSH1 0x0 REVERT JUMPDEST PUSH1 0x0 PUSH1 0x2 DUP3 DIV SWAP1 POP PUSH1 0x1 DUP3 AND DUP1 PUSH2 0x14B5 JUMPI PUSH1 0x7F DUP3 AND SWAP2 POP JUMPDEST PUSH1 0x20 DUP3 LT DUP2 EQ ISZERO PUSH2 0x14C9 JUMPI PUSH2 0x14C8 PUSH2 0x146E JUMP JUMPDEST JUMPDEST POP SWAP2 SWAP1 POP JUMP JUMPDEST PUSH1 0x0 DUP3 DUP3 MSTORE PUSH1 0x20 DUP3 ADD SWAP1 POP SWAP3 SWAP2 POP POP JUMP JUMPDEST PUSH32 0x5265717565737420646F6573206E6F7420657869737421000000000000000000 PUSH1 0x0 DUP3 ADD MSTORE POP JUMP JUMPDEST PUSH1 0x0 PUSH2 0x1516 PUSH1 0x17 DUP4 PUSH2 0x14CF JUMP JUMPDEST SWAP2 POP PUSH2 0x1521 DUP3 PUSH2 0x14E0 JUMP JUMPDEST PUSH1 0x20 DUP3 ADD SWAP1 POP SWAP2 SWAP1 POP JUMP JUMPDEST PUSH1 0x0 PUSH1 0x20 DUP3 ADD SWAP1 POP DUP2 DUP2 SUB PUSH1 0x0 DUP4 ADD MSTORE PUSH2 0x1545 DUP2 PUSH2 0x1509 JUMP JUMPDEST SWAP1 POP SWAP2 SWAP1 POP JUMP JUMPDEST PUSH32 0x4E487B7100000000000000000000000000000000000000000000000000000000 PUSH1 0x0 MSTORE PUSH1 0x32 PUSH1 0x4 MSTORE PUSH1 0x24 PUSH1 0x0 REVERT JUMPDEST PUSH1 0x0 PUSH2 0x1586 DUP3 PUSH2 0xE78 JUMP JUMPDEST SWAP2 POP PUSH2 0x1591 DUP4 PUSH2 0xE78 JUMP JUMPDEST SWAP3 POP DUP3 PUSH2 0x15A1 JUMPI PUSH2 0x15A0 PUSH2 0x1396 JUMP JUMPDEST JUMPDEST DUP3 DUP3 MOD SWAP1 POP SWAP3 SWAP2 POP POP JUMP JUMPDEST PUSH1 0x0 PUSH2 0x15B7 DUP3 PUSH2 0xE78 JUMP JUMPDEST SWAP2 POP PUSH2 0x15C2 DUP4 PUSH2 0xE78 JUMP JUMPDEST SWAP3 POP DUP3 PUSH32 0xFFFFFFFFFFFFFFFFFFFFFFFFFFFFFFFFFFFFFFFFFFFFFFFFFFFFFFFFFFFFFFFF SUB DUP3 GT ISZERO PUSH2 0x15F7 JUMPI PUSH2 0x15F6 PUSH2 0x13C5 JUMP JUMPDEST JUMPDEST DUP3 DUP3 ADD SWAP1 POP SWAP3 SWAP2 POP POP JUMP JUMPDEST PUSH1 0x0 PUSH2 0x160D DUP3 PUSH2 0xE78 JUMP JUMPDEST SWAP2 POP PUSH1 0x0 DUP3 EQ ISZERO PUSH2 0x1621 JUMPI PUSH2 0x1620 PUSH2 0x13C5 JUMP JUMPDEST JUMPDEST PUSH1 0x1 DUP3 SUB SWAP1 POP SWAP2 SWAP1 POP JUMP JUMPDEST PUSH1 0x0 PUSH2 0x1637 DUP3 PUSH2 0xE78 JUMP JUMPDEST SWAP2 POP PUSH2 0x1642 DUP4 PUSH2 0xE78 JUMP JUMPDEST SWAP3 POP DUP3 DUP3 LT ISZERO PUSH2 0x1655 JUMPI PUSH2 0x1654 PUSH2 0x13C5 JUMP JUMPDEST JUMPDEST DUP3 DUP3 SUB SWAP1 POP SWAP3 SWAP2 POP POP JUMP JUMPDEST PUSH1 0x0 PUSH2 0x166B DUP3 PUSH2 0xE78 JUMP JUMPDEST SWAP2 POP PUSH2 0x1676 DUP4 PUSH2 0xE78 JUMP JUMPDEST SWAP3 POP DUP2 PUSH32 0xFFFFFFFFFFFFFFFFFFFFFFFFFFFFFFFFFFFFFFFFFFFFFFFFFFFFFFFFFFFFFFFF DIV DUP4 GT DUP3 ISZERO ISZERO AND ISZERO PUSH2 0x16AF JUMPI PUSH2 0x16AE PUSH2 0x13C5 JUMP JUMPDEST JUMPDEST DUP3 DUP3 MUL SWAP1 POP SWAP3 SWAP2 POP POP JUMP JUMPDEST PUSH1 0x0 DUP2 PUSH1 0x1 SHR SWAP1 POP SWAP2 SWAP1 POP JUMP JUMPDEST PUSH1 0x0 DUP1 DUP3 SWAP2 POP DUP4 SWAP1 POP JUMPDEST PUSH1 0x1 DUP6 GT ISZERO PUSH2 0x1711 JUMPI DUP1 DUP7 DIV DUP2 GT ISZERO PUSH2 0x16ED JUMPI PUSH2 0x16EC PUSH2 0x13C5 JUMP JUMPDEST JUMPDEST PUSH1 0x1 DUP6 AND ISZERO PUSH2 0x16FC JUMPI DUP1 DUP3 MUL SWAP2 POP JUMPDEST DUP1 DUP2 MUL SWAP1 POP PUSH2 0x170A DUP6 PUSH2 0x16BA JUMP JUMPDEST SWAP5 POP PUSH2 0x16D1 JUMP JUMPDEST SWAP5 POP SWAP5 SWAP3 POP POP POP JUMP JUMPDEST PUSH1 0x0 DUP3 PUSH2 0x172A JUMPI PUSH1 0x1 SWAP1 POP PUSH2 0x17E6 JUMP JUMPDEST DUP2 PUSH2 0x1738 JUMPI PUSH1 0x0 SWAP1 POP PUSH2 0x17E6 JUMP JUMPDEST DUP2 PUSH1 0x1 DUP2 EQ PUSH2 0x174E JUMPI PUSH1 0x2 DUP2 EQ PUSH2 0x1758 JUMPI PUSH2 0x1787 JUMP JUMPDEST PUSH1 0x1 SWAP2 POP POP PUSH2 0x17E6 JUMP JUMPDEST PUSH1 0xFF DUP5 GT ISZERO PUSH2 0x176A JUMPI PUSH2 0x1769 PUSH2 0x13C5 JUMP JUMPDEST JUMPDEST DUP4 PUSH1 0x2 EXP SWAP2 POP DUP5 DUP3 GT ISZERO PUSH2 0x1781 JUMPI PUSH2 0x1780 PUSH2 0x13C5 JUMP JUMPDEST JUMPDEST POP PUSH2 0x17E6 JUMP JUMPDEST POP PUSH1 0x20 DUP4 LT PUSH2 0x133 DUP4 LT AND PUSH1 0x4E DUP5 LT PUSH1 0xB DUP5 LT AND OR ISZERO PUSH2 0x17BC JUMPI DUP3 DUP3 EXP SWAP1 POP DUP4 DUP2 GT ISZERO PUSH2 0x17B7 JUMPI PUSH2 0x17B6 PUSH2 0x13C5 JUMP JUMPDEST JUMPDEST PUSH2 0x17E6 JUMP JUMPDEST PUSH2 0x17C9 DUP5 DUP5 DUP5 PUSH1 0x1 PUSH2 0x16C7 JUMP JUMPDEST SWAP3 POP SWAP1 POP DUP2 DUP5 DIV DUP2 GT ISZERO PUSH2 0x17E0 JUMPI PUSH2 0x17DF PUSH2 0x13C5 JUMP JUMPDEST JUMPDEST DUP2 DUP2 MUL SWAP1 POP JUMPDEST SWAP4 SWAP3 POP POP POP JUMP JUMPDEST PUSH1 0x0 PUSH2 0x17F8 DUP3 PUSH2 0xE78 JUMP JUMPDEST SWAP2 POP PUSH2 0x1803 DUP4 PUSH2 0xE78 JUMP JUMPDEST SWAP3 POP PUSH2 0x1830 PUSH32 0xFFFFFFFFFFFFFFFFFFFFFFFFFFFFFFFFFFFFFFFFFFFFFFFFFFFFFFFFFFFFFFFF DUP5 DUP5 PUSH2 0x171A JUMP JUMPDEST SWAP1 POP SWAP3 SWAP2 POP POP JUMP JUMPDEST PUSH1 0x0 PUSH1 0xFF DUP3 AND SWAP1 POP SWAP2 SWAP1 POP JUMP JUMPDEST PUSH1 0x0 PUSH2 0x1850 DUP3 PUSH2 0x1838 JUMP JUMPDEST SWAP2 POP PUSH2 0x185B DUP4 PUSH2 0x1838 JUMP JUMPDEST SWAP3 POP DUP3 PUSH2 0x186B JUMPI PUSH2 0x186A PUSH2 0x1396 JUMP JUMPDEST JUMPDEST DUP3 DUP3 DIV SWAP1 POP SWAP3 SWAP2 POP POP JUMP JUMPDEST PUSH1 0x0 PUSH2 0x1881 DUP3 PUSH2 0x1838 JUMP JUMPDEST SWAP2 POP PUSH2 0x188C DUP4 PUSH2 0x1838 JUMP JUMPDEST SWAP3 POP DUP2 PUSH1 0xFF DIV DUP4 GT DUP3 ISZERO ISZERO AND ISZERO PUSH2 0x18A6 JUMPI PUSH2 0x18A5 PUSH2 0x13C5 JUMP JUMPDEST JUMPDEST DUP3 DUP3 MUL SWAP1 POP SWAP3 SWAP2 POP POP JUMP JUMPDEST PUSH1 0x0 PUSH2 0x18BC DUP3 PUSH2 0x1838 JUMP JUMPDEST SWAP2 POP PUSH2 0x18C7 DUP4 PUSH2 0x1838 JUMP JUMPDEST SWAP3 POP DUP3 DUP3 LT ISZERO PUSH2 0x18DA JUMPI PUSH2 0x18D9 PUSH2 0x13C5 JUMP JUMPDEST JUMPDEST DUP3 DUP3 SUB SWAP1 POP SWAP3 SWAP2 POP POP JUMP JUMPDEST PUSH1 0x0 PUSH2 0x18F0 DUP3 PUSH2 0x1838 JUMP JUMPDEST SWAP2 POP PUSH2 0x18FB DUP4 PUSH2 0x1838 JUMP JUMPDEST SWAP3 POP DUP3 PUSH1 0xFF SUB DUP3 GT ISZERO PUSH2 0x1911 JUMPI PUSH2 0x1910 PUSH2 0x13C5 JUMP JUMPDEST JUMPDEST DUP3 DUP3 ADD SWAP1 POP SWAP3 SWAP2 POP POP JUMP INVALID LOG2 PUSH5 0x6970667358 0x22 SLT KECCAK256 LT PUSH12 0x77BB276F72031ADD16DBFAB5 GAS 0x5C 0xEB 0x25 JUMPDEST PUSH10 0x19CB3367F26BD5926176 0x2A RETURNDATACOPY PUSH5 0x736F6C6343 STOP ADDMOD SIGNEXTEND STOP CALLER "
    }
  }
}